:020000040800F2
:10000000D0EC01201503000833030008A53A0008CE
:1000100037030008390300083B0300080000000014
:100020000000000000000000000000003D03000888
:100030005703000800000000973A00085B0300081F
:100040005D0300085D0300085D0300085D03000810
:100050005D0300085D0300085D0300085D03000800
:100060005D0300085D0300085D0300085D030008F0
:100070005D0300085D0300085D0300085D030008E0
:100080005D0300085D03000887370008474000084B
:10009000893F00085D0300085D0300085D03000858
:1000A0005D0300085D0300085D0300085D030008B0
:1000B0005D0300085D0300085D0300085D030008A0
:1000C0005D0300085D0300085D0300085D03000890
:1000D0005D0300085D0300085D0300085D03000880
:1000E0005D0300085D0300085D0300085D03000870
:1000F0005D0300085D0300085D0300085D03000860
:100100005D0300085D0300085D0300085D0300084F
:100110005D0300085D0300085D0300085D0300083F
:100120005D0300085D0300085D0300085D0300082F
:100130005D0300085D0300085D0300085D0300081F
:100140005D0300085D0300085D0300085D0300080F
:100150005D0300085D0300085D0300085D030008FF
:100160005D0300085D0300085D0300085D030008EF
:100170005D0300085D0300085D0300085D030008DF
:100180005D0300085D03000800F002F800F0B2F81B
:100190000AA090E8000C82448344AAF10107DA45E2
:1001A00001D100F0A7F8AFF2090EBAE80F0013F082
:1001B000010F18BFFB1A43F00103184714B70000E2
:1001C00034B700000A444FF0000C10F8013B13F064
:1001D000070408BF10F8014B1D1108BF10F8015BA0
:1001E000641E05D010F8016B641E01F8016BF9D193
:1001F00013F0080F1EBF10F8014BAD1C0C1B09D1EA
:100200006D1E58BF01F801CBFAD505E014F8016B5B
:1002100001F8016B6D1EF9D59142D6D370470000ED
:100220000023002400250026103A28BF78C1FBD8FF
:10023000520728BF30C148BF0B6070476E2907F0D6
:10024000C383702907F01384662909F0598465294E
:1002500009F05684672909F053846129AFF30080BF
:1002600003681B0A28BF41F08001692907F07083E9
:10027000642907F06D83752907F06A836F2908F0F8
:10028000ED81782907F0DF83E92908F08781E429E7
:1002900008F08481F52908F08181EF2908F0EA81CE
:1002A000F82907F0DE830368DB0928BF41F08001ED
:1002B000632908F00881732908F00D81E32908F00B
:1002C000F582F32908F0FA82002070471FB509F083
:1002D00012FC08F04FFA04000020002109F06EF92A
:1002E000401C60600020002109F052F9E0601FBD51
:1002F00010B510BD08F032FD1146FFF7E7FF01F021
:100300002BFD08F059FD03B4FFF7F2FF03BC08F022
:100310005DFD000015481649026800608A4203D05E
:1003200014488047144800471448D0F800D040686B
:100330000047FEE7FEE7FEE7FEE7FEE71EF0040FDC
:100340000CBFEFF30880EFF30980806910F8020C0E
:1003500003F0A7BBFEE7FEE7FEE7FEE7FEE70000CF
:1003600007480849084A094B70470000F01F002061
:10037000EFBEADDE9D100008890100080000FF1FE0
:10038000D0E60120D0EC0120D0E80120D0E8012007
:100390003B48016841F0040141F4800101603948A3
:1003A000016840F23F3211430160374801689143D0
:1003B00001603648016841F4807101603448D0F82A
:1003C000041341F48031C0F8041340F2033181601A
:1003D00044F23611C16044F22611C160C16A21F4B1
:1003E0007001C162C16A41F44011C162294941638F
:1003F00029490A6822F001020A600A6812F0010F16
:1004000003D00A6812F0010FFBD10A6822F0606283
:100410000A600A6842F450620A60214B1F4A1A605F
:100420001B1D204A1A60204B04221A60426842F4C5
:1004300080724260426822F000724260426822F09C
:10044000807242600A6842F001020A60816841F0ED
:1004500080418160016821F002010160416841F042
:10046000200141601149102081F800044FF0E02183
:100470008003C1F8000170470A4931F81000704745
:1004800030380240000802400C0802404438024064
:10049000002001406A310700706402404C20014096
:1004A000786402409C0200207464024012E000E084
:1004B0002DE9F001DD48016841F0010101600168AA
:1004C00041F002010160016841F004010160D84877
:1004D000016821F00C010160C16821F00C01C160CC
:1004E0004FF480218161026842F0100202600268CC
:1004F00022F020020260826862F030028260820094
:100500008261026842F040020260026822F08002CA
:100510000260826862F0C0028260402787610268E0
:1005200042F480520260026822F400520260826843
:1005300042F44052826082158261026842F4803245
:100540000260026822F400320260826842F44032A3
:100550008260B84E0A113260B74A136843F0805384
:100560001360136823F000531360B44C236843F006
:1005700040532360136823F00C03136004F1040C50
:10058000DCF8003023F00C03CCF800303160116847
:1005900041F010011160116821F020011160216803
:1005A00021F030012160116821F470711160DCF8D4
:1005B000001021F47071CCF80010A14DC101296028
:1005C000A0490B6843F480330B600B6823F40033BD
:1005D0000B609D4BD3F8008028F44038C3F80080AE
:1005E0004FF08008C5F80080D1F8008048F48048BA
:1005F000C1F80080D1F8008028F40048C1F80080DC
:10060000D3F8008028F44048C3F800804FF0080871
:10061000C5F80080D1F8008048F04008C1F800809B
:10062000D1F8008028F08008C1F80080D3F800805D
:1006300028F0C008C3F800802F600F6847F4805787
:100640000F600F6827F400570F601F6827F44057AA
:100650001F60176827F440771760DCF8007027F4F4
:100660004077CCF8007047152F600F6847F480275B
:100670000F600F6827F400270F601F6827F44027DA
:100680001F60176827F0C0071760DCF8007027F0BC
:10069000C007CCF80070176827F040471760DCF8F7
:1006A000007027F04047CCF80070176827F04067CB
:1006B0001760DCF8007027F04067CCF80070D1F8C4
:1006C00000C02CF4406CC1F800C003F1040CDCF84D
:1006D000007027F44067CCF800700F6827F040578F
:1006E0000F60DCF8007027F08057CCF80070DCF861
:1006F000007047F00057CCF800704FF4004CC5F87C
:1007000000C00D6845F080450D600D6825F000457E
:100710000D60196821F040411960C0F818C00168E7
:1007200041F080410160016821F000410160816871
:1007300021F04041816020203060106840F48060EA
:100740001060106820F400601060206820F44060A1
:100750002060BDE8F0017047002814BF40204FF42E
:10076000800033498861704770473348016821F041
:100770000C0101602F4920200860BFF35F8F3348D0
:100780000068C0F3400070472A490A6842F400122A
:100790000A60002814BF02204FF400300860264889
:1007A000016841F004010160704725490A6842F080
:1007B00000420A60002814BF02204FF400301C4998
:1007C0008861086840F004000860704718480168B4
:1007D00021F00C0101601A4A4FF400411160BFF38F
:1007E0005F8F0069C0F3400070471648016821F42C
:1007F000405101601648016821F440510160704782
:100800000F49402008600F48026842F4805202609D
:10081000026822F4005202600B48026822F440523F
:1008200002604FF4800008607047000030380240DA
:100830000000024018040240000402400804024084
:100840001808024000080240080802401004024054
:100850000C0802402DE9F0410446D0F800010125C2
:10086000324E022816BF02204FF6FF77BDE8F08116
:1008700026E0B1686054481CB060062812D1217986
:1008800011F0800218BFA278921D01F07F01F26082
:10089000502904BF6179012901D1802A02D9902011
:1008A000BDE8F081F168884206D10020B0600120E7
:1008B0000325C4F8000107E0D4F80001012803D0A3
:1008C00000F0D5F9B842D4D12846BDE8F081DFF870
:1008D0005CC0D0F80032DCE9001211441A44CCF8B4
:1008E00004205A1E38BF704710F8013B01F8013B45
:1008F000521EF9D2704710B50C4C6068002808BF32
:1009000010BD00F0E8F9002808BF10BDD4E90001CF
:1009100000F0C2F90648216881420CBF00F5007062
:10092000034820600020606010BD0000040100202A
:10093000B00600206748016841F4802101606648E4
:10094000016841F0020141F400110160634801684F
:1009500021F480110160016841F400110160011D62
:100960000A6822F480620A605D490A6822F4401233
:100970000A600A1F136823F440131360594A13686E
:1009800023F4706343F4E0631360036823F480038B
:100990000360036843F400030360086820F4400028
:1009A0000860106820F4704040F4E04010604E4948
:1009B00040F26D1008804D4800230380001D038025
:1009C0000A1D118841F400511180018841F0C001D5
:1009D00001804748816D21F001018165816D11F031
:1009E000010F03D0816D11F0010FFBD1816D21F05A
:1009F00060618165816D41F000618165816D41F4C7
:100A000088618165DFF8ECC0C0F860C0C365816AA9
:100A100021F001018162816A11F0010F03D0816A26
:100A200011F0010FFBD1816A21F060618162816A5E
:100A300041F000618162816A41F4A0618162C0F885
:100A400030C02D4941634FF40061C1622B490B88CE
:100A500023F040030B80118841F00C011180816A62
:100A600041F00101816270472148C06A244AC0F503
:100A700000601168884204BF4FF6FF7070471E483F
:100A8000405C491C1160B1F5006F04BF002111608A
:100A90007047174A936D23F001039365936D13F02C
:100AA000010F03D0936D13F0010FFBD15066D16598
:100AB0001248018821F0400101804FF000609060F1
:100AC000906D40F00100906570470C48008800F080
:100AD0004000704740380240303802400004024075
:100AE0000C04024024040240084800401048004022
:100AF0000060024004480040B00A00200048004066
:100B0000140100207648016841F010010160754829
:100B1000016841F0010141F48001016072480168FF
:100B200021F480210160016841F4002101604168E5
:100B300021F400714160C16821F44021C1608168E5
:100B400021F440218160416A21F0F00141F07001FF
:100B50004162016821F480110160016841F40011D3
:100B60000160C16821F40011C160C16841F48011C5
:100B7000C160416A21F4706141F4E0614162C102E7
:100B80008161016841F080710160016821F00071AC
:100B90000160816841F040718160016821F4400189
:100BA0000160C16821F40001C160C16841F48001A5
:100BB000C1604E4A40F2D9201081002313829382F3
:100BC000908940F400509081908A40F0C00090825B
:100BD0004748016821F001010160016811F0010F2F
:100BE00003D0016811F0010FFBD1016821F06061B1
:100BF0000160016841F000610160016841F48861B1
:100C000001603D48DFF8ECC0C0F800C0001F036081
:100C10003A48016821F001010160016811F0010FFB
:100C200003D0016811F0010FFBD1016821F0606170
:100C30000160016841F000610160016841F4A06158
:100C400001602F49C1F800C02F4B2E49196099153A
:100C50002E4B1960118821F040011180918941F0DB
:100C60000C019181016841F0010101607047274842
:100C70000068274AC0F580701168884204BF4FF6AB
:100C8000FF7070471F48405C491C1160B1F5807FC0
:100C900004BF002111607047154A136823F0010357
:100CA0001360136813F0010F03D0136813F0010FE2
:100CB000FBD1184B1860184801600C48018821F0DE
:100CC0004001018015494FF000600860106840F055
:100CD0000100106070470548008800F04000704730
:100CE0004438024030380240000002400010014009
:100CF000B864024004100140C064024040640240F5
:100D000048640240B01200204C6402404464024037
:100D100018010020C4640240BC6402400C6402401C
:100D2000B948016841F400310160B849A7220A803E
:100D3000B74A40F2E7311160B64A49101160B6492E
:100D40000A8842F001020A80B4490A8842F060022F
:100D50000A80091F0A8842F001020A80B0490A8805
:100D600042F001020A80016841F480310160AD481F
:100D700020210181018941F00701018100210185C4
:100D80004FF6FF71C162018841F001010180704797
:100D9000A448406A80B27047401A80B27047A248A7
:100DA000016841F010010160A048532101854FF610
:100DB000FF714162C162018841F008010180018830
:100DC00041F0010101807047974B186840F008001E
:100DD00018609748016841F008010160016811F04E
:100DE000080F03D1016811F0080FFBD0016821F052
:100DF000080101608F4800210180001F01608E4AB8
:100E0000106840F0010010608C48D0F800C02CF051
:100E1000010CC0F800C0D0F800C04CF0020CC0F8C3
:100E200000C0D0F820C02CF00F0C4CF0020CC0F821
:100E300020C0DFF80CC2481ECCF80000DFF804C266
:100E40005720ACF800008048B0F800C04CF0010C0E
:100E5000A0F800C0001FB0F800C04CF0010CA0F8D2
:100E600000C07A48B0F800C04CF0010CA0F800C0F7
:100E7000186840F00200186075480180001F01608A
:100E8000106840F0020010607248016821F0010112
:100E90000160016841F0020101606F48016821F0C2
:100EA0000F0141F002010160016821F0F00141F001
:100EB00020010160694941F26700086041106848FB
:100EC0000160006867490860674947F27000088060
:100ED000081D018841F4807101806448018841F057
:100EE0000101018070474F4B596A5A6A89B2521A00
:100EF00092B2824228BF70475A6A521A92B2824214
:100F0000FAD370475A4948434FF47A71B0FBF1F075
:100F1000B0F1807F24BF012070474FF0E0210A69C3
:100F200042F001020A614861002070474FF0E02062
:100F3000006900F48030704778B44E4BDFF838C158
:100F40001C1D38B94D48006800901868CCF80000A6
:100F5000206800903448016841F0805101604848A1
:100F6000016841F4807101604648016841F48031B4
:100F70000160016821F480310160016841F4407131
:100F80000160016841F4004101603F4ACA201060DD
:100F9000532010603D48016841F080010160016804
:100FA00011F0400F03D1016811F0400FFBD0384918
:100FB0000D6842F20F766FF30E0535430D600D6834
:100FC00025F4FE0545F4C6050D60DCF80010196037
:100FD00030492160016821F080010160016811F051
:100FE000800F03D0016811F0800FFBD1FF21116049
:100FF000016821F02001016078BC70472649084053
:101000001D490860704700004438024028440140F0
:101010002C44014034440140204401401844014024
:1010200000440140004001404038024000100040B0
:1010300020380240280C00403038024000000240B6
:101040002C0C0040080C0040180C0040000C004024
:101050002804004000040240200402402C04004008
:101060003C040040400400401C04004014040040C4
:10107000406F4001002800401C010020282800404B
:101080000070004070380240242800400C280040C6
:1010900010280040024413007F7F3F004B48016846
:1010A00041F4700101604A4B186840F0010018607B
:1010B0004849002008601A6822F4102222F0807249
:1010C0001A60A1F1040C444ACCF800201A6822F4FA
:1010D00080221A600A1D10601A6842F480321A6079
:1010E0001A6800F1010012F4003F02D1B0F5705F00
:1010F000F6D11868C0F34040002861D03748026834
:1011000042F0805202603648026842F48042026037
:10111000344840F20562026008680860086840F4DC
:1011200000400860086840F4A0500860086820F497
:10113000F81040F440200860086820F07C500860F7
:10114000086840F080600860086840F060500860FF
:10115000086820F040400860086840F0804008605F
:101160002148CCF80000186840F0807018601868BA
:1011700010F0007F03D1186810F0007FFBD00868E2
:1011800020F003000860086840F00200086008686A
:1011900000F00C00082804D0086800F00C000828B3
:1011A000FAD1134911480860186840F0806018604F
:1011B000186810F0006F03D1186810F0006FFBD0B2
:1011C0000C494FF0006008607047000088ED00E0B7
:1011D00000380240083802401030002440380240F5
:1011E00000700040003C02400C544007004000509A
:1011F0008438024008ED00E030B40188FD4B002443
:10120000FD4A4FF0010C0B295AD013DC4FF0030CB0
:1012100001291ED0042904BF30BC704705291CBF1A
:1012200030BC70474088586282F85800C3F838C014
:1012300030BC70470D296BD010295BD014291CBF1E
:1012400030BC70474088C3F85801508430BC04F06B
:1012500022BDC3F838C0B2F92010DFEDE80A012939
:1012600012D002291CBF30BC7047408800EE100A23
:10127000B8EE401A81EE200ADFEDE10A20EE200AE6
:1012800083ED480A30BC70474088DE4900EE100A02
:1012900092F85000B8EE401A01EB800081EE200A6F
:1012A000D0ED000A9FEDD81A60EE810A20EE800A88
:1012B000D2ED150A20EE800A83ED470A30BC704754
:1012C0004188C3F858118088C3F85C01022808BF20
:1012D00082F85CC003D0032818BF82F85C40642009
:1012E0004843CA49A1FB0010C00900B2508430BC79
:1012F00004F0D1BC418851628188D162C1885163B8
:1013000001899162418911638089906330BC704783
:101310005C64C188012914BF82F8594082F859C021
:101320008378BB490B70C3784B7003798B7043791A
:10133000CB7091ED000A82ED150A008901280CBFDF
:1013400082F85AC082F85A4030BC704770B400220C
:10135000A84BDFF8A4C214460A2976D008DC01297C
:1013600011D0042945D0052959D007295CD0C0E007
:10137000022601250B2967D00D297DD010297CD0AC
:1013800014297BD0B5E00180BCF9201004229FED28
:101390009B1A012902D0022917D01EE0D3ED470A7B
:1013A000DCED151A9CF85010DFF858C280EEA10A47
:1013B0000CEB8101D1ED001AC0EE210A9FED920ADB
:1013C00020EE800A20EE010A07E093ED480ADFEDE7
:1013D0008C1AC0EE210A20EE810AF6EE000A30EEE9
:1013E000200ABDEEC00A10EE101AC3F85411418055
:1013F0007FE0BCF82020022A08BFC3F830410C224D
:101400000180D3F828110029B8BF49424180B3F8C0
:1014100030118180B3F83411C180448169E00180CA
:1014200004229CF85810E2E7018093F85010817074
:10143000B3F850100A22090AC170196D0B0C037120
:10144000090E417155E000E01DE00180DCF81C1040
:101450004FF0FA0C01FB0CF147F6FF7C91FBFCF11D
:10146000DFF8B0C1C1EBC1318CFB01C14FEAA11C57
:101470000422ACEBE17102E03EE01DE031E0C3F894
:10148000E010418035E09CF85C20012A14BF9D6289
:101490009E6208220180BCF92210DFF87CC1C1EBFA
:1014A00001218CFB01C14FEA611CACEBE171418071
:1014B000198D8180C4801CE00180BCF8241041801B
:1014C000BCF82C108180BCF83410C180BCF8281006
:1014D0000181BCF830104181BCF838100E228181A6
:1014E00007E00180BCF8221041808480C4800A2279
:1014F000048170BC10467047018045499CED150A77
:101500000A2281ED000A0B7883704B78C3708B78C8
:101510000371C97841719CF85910012914BFC68024
:10152000C5809CF85A1001290CBF05810481E0E7B1
:101530002DE9F05F394F00231446B7F90050844677
:101540001E469846002D1CBFABB2A7F800800BD1F9
:10155000BCF1000F1CBFBCF80030821D04D119B1D2
:101560000B88002002469BB284F803800127277174
:1015700050276771A51D40F6010B1E4FDFF87890CC
:10158000A3F6010A4FF0320EC4F800825B457CD00E
:101590005ADC40F2132AA3F2132C534576D01BDCFD
:1015A0004FF081004FF0440A122B70D007DC022B61
:1015B0006ED0052B5BD0112B6BD000F0B4BADFF8E6
:1015C00060C0142B00F03C81152B00F0A981812B09
:1015D00000F01F8100F0A7BABCF13E0F00F090822E
:1015E00025DCBCF1010F73D0BCF1100F72D0BCF13F
:1015F0003D0F17E020010020103E012000FEFF46B5
:1016000000006643049B000800007A4481808080CB
:1016100028020020B71A3C471F85EB51D402002056
:10162000B013002004BFC078387000F07CBAACF56D
:101630008060733800F04B82B0F5BD7F04BF104668
:10164000FFF7DAFD00F06FBAAAF10F01182980F058
:101650006A82DFE801F0987377F4F3F2F1F0EFEECD
:10166000EDECEEEEEEEEEEEEEEEEEE68EEA906221C
:1016700022805422A2702071F849284606F0FAFB15
:10168000D9F800002860302004E05FE090E031E00D
:1016900037E024E085F84200382185F8431085F8CA
:1016A000440085F8451085F84600392085F8470044
:1016B00085F848A0652085F84900632085F84A0030
:1016C000E749012685F84B800220486300F022BAE2
:1016D00092E0FFE7E2484021816200F024BAE0484E
:1016E000816BC0F82C8041F001018163C7F81CE0D8
:1016F00000F019BADA48816B21F00101816300F032
:1017000012BAD7480029C0F83480826B22F0010257
:10171000826300F008820220208084F8028084F82E
:10172000038000F02AB9CE48C7F81CE0816B41F075
:10173000010181630F20B86100F0F5B90120386321
:1017400000F0F1B9C7F8448000F0EDB9C54BB3F92A
:101750000020002A1CBF91B2A3F800800CD02846BC
:10176000FFF7F4FD40F602022280A070207940F0DD
:101770008001217100F001B9BCF1000F14BF807825
:10178000486881B2EBE70320B871B748C7F8F0802A
:10179000C9F80800012660220021B44802F06EF862
:1017A0000120B87100F0B6B9C7F81CE000F0BBB971
:1017B000AB4C8278A16B62F34101A163807810F099
:1017C000020F14BF41F0040021F00400A063D9F817
:1017D00024100A2904BFC0F34000FEF7E6FFD9F841
:1017E00028000A2840F09F8194F83800C0F3800058
:1017F000FEF7CAFF00F097B9994840F21521218001
:10180000008F0221C0F3400201EA50001118A170BC
:10181000B3E0208084F802A02071A5F800808888B9
:1018200068808A6892A1281D06F02CF8A5E009E1DD
:101830000FE1EFE0EFE0B1E0A1E06AE141E104E1B6
:101840001368CCF800305068CCF804009168CCF8EC
:101850000810B3F5C87F11D0A3F58074913C3CD03B
:10186000042C00F06081C9F80030C9E90301107E42
:1018700000F0030089F8500000F055B9A1F5E062CE
:10188000C53A40F05081002808BF012104D0002152
:10189000022808BF012200D00022114300F043813A
:1018A00072B676490A6822F480020A600A6822F455
:1018B00000120A607249022806BF72480860C1F827
:1018C0000080BFF34F8F70480168704A01F4E061F7
:1018D00011430160BFF34F8FFEE7B0F1553F06D0D3
:1018E000CCF80080CCF80480CCF808801BE10229F9
:1018F00014BF01200220C7F8F080C7F8C8000320F9
:10190000B87197F8C80089F85B005748C9F8080013
:1019100060220021554801F0B1FF0120B87102E1B9
:10192000162222802822A2702071002045F82080F3
:10193000401C0A28FADBDCF8001040F295108142C6
:1019400004D1286099F85B00A86014E0D9F8000081
:101950002860D9F80C006860D9F81000A860D7F8A2
:101960003C01E860D7F838012861D7F84001686188
:1019700099F85000A861CCF800800126CAE081786F
:10198000022918BF87F8058044D101217971C078F8
:10199000022808BF79647FF4D5AEC4E079790129C3
:1019A00038D10221A9F82010817800EE101AB8EE83
:1019B000400A5FEDED0A9FED361A60EE200A80EED8
:1019C000810A5FEDF20A9FED331A60EE200AC0EE45
:1019D000811AFDEEE10AC9ED070AF6EE000A30EEC3
:1019E000200ABDEEC00AB8EEC00A87ED480A796C3D
:1019F00029B99FED290A87ED480A87ED470AC17882
:101A0000042908BF89F85980C078082804BF01203C
:101A100089F8590087E01921217008216170D9F8EF
:101A20001C004FF6061148431C4990FBF1F0C7F823
:101A3000E400FF28C4BFFF20C7F8E40097F8E400E3
:101A4000A0709AE7807802286DD10220A9F82000C2
:101A500069E0807820B302282AD064E01C9E000848
:101A6000703E0120D60200200A000200103E012034
:101A7000252D36332E3633730000000030380240F7
:101A8000F01F0020EFBEADDE0CED00E00400FA0513
:101A900000007F4300007A43000000001AFF72003C
:101AA0000120387287F80280787087F803803AE066
:101AB00087F8088087F802800120787087F8038013
:101AC00031E00120A9F82000C7F844802BE04B202A
:101AD000A9F822006FF00301A9F8041004F0DBF864
:101AE00089F85A8089F85C80B87903281BD1FE48B0
:101AF000C9F8080060220021FC4801F0BFFE12E096
:101B000040F2522222808178A1703978E17001265A
:101B100000E046B1207910F0800F1ABFA078801D38
:101B20000620C4F800023046BDE8F09F0FB4002242
:101B300000B583B0EEA3BDF81000CDE9000205A901
:101B40000293812812D0A0F50062023A04BF08680F
:101B50000190E84A69460020FFF7EAFC012804BF2B
:101B6000E448FEF7B4FE03B05DF814FBDDE90501BF
:101B70000092E14A136B8342EBD0B0F5004F03D0E3
:101B800081230093CDE901011063E2E72DE9F041E3
:101B9000DA4C00270326D4F8C4200121D84D052AA9
:101BA0004ED2DFE802F0030827425100002808BFA8
:101BB000C4F8C41044E06764A1714FF4004003F01E
:101BC000CEFF4FF480202860C84DAE80A671C4F8C7
:101BD000F070FFF7DDF8E0810220C4F8C400A079BE
:101BE00003282DD1C048A86060220021284601F0BA
:101BF00045FE25E0002818BFC4F8C47020D1FFF7C7
:101C0000C7F8E189FFF7C8F8B0F5FA6F18D90220D4
:101C1000FFF78CFFB848816B21F001018163002040
:101C2000C4F8C46004F037F80AE0FFF7B1F8E189BE
:101C3000FFF7B2F8B0F57A6F84BF0420C4F8C4008F
:101C4000D4F8C400BDE8F08140F6B830FFF74BF996
:101C50004FF080442C60FEF7C8FD208820F0010082
:101C60002080A848816A21F001018162816A11F017
:101C7000010F03D0816A11F0010FFBD1816D21F0BA
:101C800001018165816D11F0010F03D0816D11F0AB
:101C9000010FFBD19C48016821F00101016001683E
:101CA00011F0010F03D0016811F0010FFBD197482B
:101CB000016821F001010160016811F0010F03D0FA
:101CC000016811F0010FFBD19148016821F0010179
:101CD0000160016811F0010F03D0016811F0010FDC
:101CE000FBD18C48016821F480010160016821F476
:101CF0000011016072B68848016821F0F0010160AE
:101D0000016841F0F0010160016821F00301016008
:101D1000016841F001010160016801F00C01042932
:101D200004D0016801F00C010429FAD17B48016854
:101D300021F0807101607A48016811F4004FFBD0F6
:101D4000BFF34F8F77480168774A01F4E061114390
:101D50000160BFF34F8FFEE72DED068B82B04FF091
:101D60000009FEF7A5FBDFF8B8B1DBF80000DBF8EF
:101D70000010000940EAD10010F0010F08BF4FF039
:101D800001094FF4802A5E4FC7F800A007F0B3FEA8
:101D90006048016841F0010101606448016841F058
:101DA000005101606248016841F440710160C168FE
:101DB00021F44071C1605F48016841F00101016098
:101DC0005D490020086048063860FEF7A9FF6420DE
:101DD000FFF798F8FEF7E3FFFEF7F6FF0020FFF7A6
:101DE0000DF90120FFF7A8F8FEF78CFEFEF7A2FD23
:101DF00001F0C8FF01F0F4FEFEF7F7FC3F4D0126AD
:101E0000F003AE7103F0ABFE00242C72DBF800008F
:101E100010F4004FFAD00320A8710A20FFF763F8EE
:101E200037484FF4804101600023602219462F4853
:101E300001F0E6FC4FF0E021AE714FF48020C1F8D4
:101E40008001C1F80001FEF7A3FA284F3B4839682A
:101E500091FBF0F062281CBF3948386097F85B00AE
:101E6000022818BF87F85B6097F85B00C5F8C800C8
:101E700002F062F93220FFF736F81F484FF0000AEF
:101E8000816B21F00101816340F65C30C5E93F4080
:101E90000620FFF728F80120FEF7EEFAD5F8FC102F
:101EA0000AF1010A0844C5F8FC00BAF1100FEFDB93
:101EB000001147F6407AC5F8FC00504603F04FFE8B
:101EC0000220FFF710F80020FEF7D6FA014640F690
:101ED0005B30814205D248F2C0000AF1010A824516
:101EE000EBDBC7F83CA02DE00A000200103E012009
:101EF00000000000AC040020703E01202001002002
:101F000018040240006002404064024088640240BD
:101F1000B8640240303802400838024000380240BD
:101F2000100402400CED00E00400FA0540380240C5
:101F300000000240007400402074004040420F0046
:101F4000805CD705B9F1000F00F0AC83FDA001F073
:101F5000C1FD6FF00300B880DBF8000010F0100F37
:101F6000FAD00320FEF788FAA0F57061FF3940F03F
:101F70009983FEF745FCF6484FF080718161DFF8E8
:101F8000D4A38811CAF800009620FEF7ACFF4FF0EA
:101F90000009C5F86C41F86B03F0E1FDD5F86C1150
:101FA0000844C5F86C010520FEF79DFF09F1010901
:101FB000B9F1100FEFDBD5F86C01C11700EB117010
:101FC0000011C5F86C010120FEF7EFFB0120FEF7C0
:101FD000DBFBC5F86441A96DD5F8FC008142AABFBE
:101FE000DDA0C5F8646101F075FD696DD5F8FC00F0
:101FF000884206DAD5F8640140F00200C5F86401B1
:1020000002E0D9A001F066FDF86B296E884206DD7A
:10201000D5F8640140F00400C5F8640102E0D6A0E0
:1020200001F058FDF86BE96D884206DAD5F86401D5
:1020300040F00800C5F8640102E0D3A001F04AFDB9
:1020400047F60C6003F08BFD0420CAF800009620D0
:10205000FEF749FF47F60C6003F081FD0146C5F825
:102060006801CDA001F036FD696ED5F8680188429F
:1020700006DAD5F8640140F01000C5F8640102E00A
:10208000CCA001F027FD0120FEF7F6F90146C5F8C6
:102090006801CBA001F01EFDE96ED5F86801884209
:1020A00006DDD5F8640140F02000C5F8640102E0C7
:1020B000C6A001F00FFDA96ED5F86801884206DAC6
:1020C000D5F8640140F04000C5F8640102E0C2A008
:1020D00001F000FD0020FEF7CFF90146C5F86801C8
:1020E000C0A001F0F7FC696FD5F86801884206DDF1
:1020F000D5F8640140F08000C5F8640102E0BCA09E
:1021000001F0E8FC296FD5F86801884206DAD5F8B5
:10211000640140F48070C5F8640102E0B7A001F0EA
:10212000D9FC002003F01BFD9620FEF7DCFE012009
:10213000FEF7A2F90146C5F86801B3A001F0CAFC98
:10214000E96FD5F86801884206DDD5F8640140F4EE
:102150000070C5F8640102E0AEA001F0BBFCA96FFD
:10216000D5F86801884206DAD5F8640140F4806049
:10217000C5F8640102E0AAA001F0ACFC0020FEF763
:102180007BF90146C5F86801A8A001F0A3FCD5F8C9
:102190008410D5F86801884206DDD5F8640140F462
:1021A0000060C5F8640102E0A3A001F093FCD5F83B
:1021B0008010D5F86801884206DAD5F8640140F449
:1021C0008050C5F8640102E09EA001F083FC48F253
:1021D000E83003F0C4FCFEF713FB5D494FF080705C
:1021E00088619620FEF77FFE48F2E83003F0B7FCE6
:1021F0000146C5F8680196A001F06CFCD5F88C107A
:10220000D5F86801884206DDD5F8640140F4005035
:10221000C5F8640102E096A001F05CFCD5F88810D6
:10222000D5F86801884206DAD5F8640140F48040A8
:10223000C5F8640102E091A001F04CFC0120FEF71A
:102240001BF90146C5F868018FA001F043FCD5F8E1
:102250009410D5F86801884206DDD5F8640140F491
:102260000040C5F8640102E08AA001F033FCD5F813
:102270009010D5F86801884206DAD5F8640140F478
:102280008030C5F8640102E085A001F023FC002045
:10229000FEF7F2F80146C5F8680184A001F01AFCC7
:1022A000D5F89C10D5F86801884206DDD5F86401A0
:1022B00040F40030C5F8640102E07FA001F00AFCA0
:1022C000D5F89810D5F86801884206DAD5F8640187
:1022D00040F48020C5F8640102E07AA001F0FAFB26
:1022E000FEF783FA9620FEF7FEFD48F2E83003F091
:1022F00036FC0146C5F8680175A001F0EBFBD5F886
:10230000A010D5F86801884206DAD5F8640140F4D7
:102310000020C5F8640102E075A001F0DBFB01209C
:10232000FEF7AAF80146C5F8680174A001F0D2FBD7
:10233000D5F8A810D5F86801884202DDD5F8640107
:10234000E2E0E6E00D0A53656C66746573740000A4
:102350000000024018040240696F66667365745F8E
:102360006176675F6D696E00696F66667365745F3D
:102370006176675F6D6178006F6F66667365745F25
:102380004176675F6D696E006F6F66667365745F37
:102390004176675F6D6178000D0A52204731205207
:1023A0003939206E656761746976652073617420C0
:1023B000256420007361746E65675F6D617800004D
:1023C0000D0A43313A2025640000000063315F614B
:1023D00076675F6D696E000063315F6176675F6D80
:1023E000617800000D0A56313A2025640000000093
:1023F00076315F6176675F6D696E000076315F618F
:1024000076675F6D617800000D0A43323A202564DB
:102410000000000063325F6176675F6D696E0000E7
:1024200063325F6176675F6D617800000D0A563236
:102430003A2025640000000076325F6176675F6DA8
:10244000696E000076325F6176675F6D61780000CB
:102450000D0A522047312052393920706F73697448
:102460006976652063757272656E7420256420003C
:1024700054657374525F6D696E0000005465737427
:10248000525F6D61780000000D0A43333A202564E5
:102490000000000063335F6176675F6D696E000066
:1024A00063335F6176675F6D617800000D0A5633B4
:1024B0003A2025640000000076335F6176675F6D27
:1024C000696E000076335F6176675F6D617800004A
:1024D0000D0A52204731205231304B20706F736902
:1024E0007469766520736174202564200000000003
:1024F000736174706F735F6D617800000D0A43340F
:102500003A2025640000000040F48010C5F8640102
:1025100002E0FDA001F0DEFAD5F8A410D5F86801BC
:10252000884206DAD5F8640140F40010C5F8640169
:1025300002E0F8A001F0CEFA0020FDF79DFF014671
:10254000C5F86801F6A001F0C5FAD5F8B010D5F8C5
:102550006801884206DDD5F8640140F48000C5F8C2
:10256000640102E0F1A001F0B5FAD5F8AC10D5F89D
:102570006801884206DAD5F8640140F40000C5F825
:10258000640102E0ECA001F0A5FA4FF6FF7003F041
:10259000E6FA0120FDF770FF0146C5F86801E9A0E1
:1025A00001F098FAD5F8B810D5F86801884206DD30
:1025B000D5F8640140F08070C5F8640102E0E4A041
:1025C00001F088FAD5F8B410D5F86801884206DA27
:1025D000D5F8640140F00070C5F8640102E0DFA0A6
:1025E00001F078FA0020FDF747FF0146C5F86801C1
:1025F000DDA001F06FFAD5F8C010D5F86801884267
:1026000006DDD5F8640140F08060C5F8640102E0A1
:10261000D8A001F05FFAD5F8BC10D5F8680188425F
:1026200006DAD5F8640140F00060C5F8640102E004
:10263000D3A001F04FFA47F6FF7003F090FA4FF481
:102640008029CAF80090D5F86421D0A0114601F085
:1026500041FAD5F864016FF0704188421BD0D1A0D7
:1026600001F038FAD1464FF0040AC5F86841C9F8BC
:1026700000A06420FEF737FC4FF48020C9F800006A
:102680006420FEF730FCD5F86801401CC5F86801ED
:102690000328ECDB02E0C6A001F01CFAFEF796F876
:1026A000FEF763F8B88803282BD07E62FE62BE6214
:1026B000C7E90C644B20BC637884C048F8604FF4D1
:1026C00000403861B2EE040A87ED060A42F210704B
:1026D000786140F63100F8610220388487F85A406A
:1026E0003C647C64BC64B7EE000AFC6487ED150AA8
:1026F00087F8596087F85040042087F8580087F819
:102700005C40DFF8BC92C9F8006004F0D9F9002001
:1027100004F02CFA04F0F8F8AA4803F055FC4FF442
:10272000207004F015FAFEF76BF8DFF89CA24FF06A
:102730008070CAF81800A5A14FF4FA6003F07FF981
:10274000FEF712F8B7F9220003F0A5FAC9F8004025
:10275000F86BC038C5F8D800AE719FEDA49ADFEDD4
:10276000A49A9FEDA48A9FEDA4AA4FF00A09DFED79
:10277000A38ADBF80000DFF888A2400BDAF800102B
:1027800040EA511010F0010F0BD09E480021416427
:10279000DBF8001011F0080F04BF0F21C0F874110E
:1027A0001CE09848016B012908BF4664DBF8001063
:1027B000D0F8782126EAD101914209D0C16C39B90B
:1027C0004FF47A71C164DBF8001011F0080F2AD0C1
:1027D000DBF8001026EAD101C0F87811894F0024F7
:1027E0003C63F86C00281CBF401EF864786C01281C
:1027F00020D085494FF48020C7F8F04008607E81E2
:1028000005203861D7F8E800002808BF3C657F4DF7
:1028100095F85A0000280CBFC7F81891C7F818415E
:10282000387AE8BB23E0416C00291ABF00214164DB
:102830004664CDE7B86C98B9744D95F859000128F5
:10284000E86B14BFC030C03803F089F9E86BC038BA
:10285000C7F8D800386C401E38640520FEF743FBEB
:10286000694804210160386D40F001002AE0D7F882
:10287000DC00411CC7F8DC10642820DDC7F8DC4010
:10288000E86BD7F8D81000F1C0029142D4BF481CC1
:10289000C038C7F8D80003F062F997F8D80000E014
:1028A0000DE010F0010F0AD10020FDF7E5FD40F624
:1028B0005C31884203D3E86BC038C7F8D800386D64
:1028C00020F001003865D7E91101814204D00321CD
:1028D000B96341F234217963B8644D48FDF7BAFF1A
:1028E000902810D04A4DD5F80001012818BF0020CB
:1028F00048490988002918BF0121084303D0464AE6
:10290000002143488AE093E063345F6176675F6D3E
:10291000696E000063345F6176675F6D6178000007
:102920000D0A56343A2025640000000076345F61B9
:1029300076675F6D696E000076345F6176675F6D04
:10294000617800000D0A43353A202564000000003C
:1029500063355F6176675F6D696E000063355F6147
:1029600076675F6D617800000D0A56353A20256460
:102970000000000076355F6176675F6D696E00006C
:1029800076355F6176675F6D617800000D0A45728C
:10299000726F7220636F64653A2025642028257861
:1029A000290000000D0A4641494C45442100000021
:1029B0000D0A50617373656421000000968E3B0020
:1029C0009404002078AD00080000024054686F7243
:1029D0006C616273204B4C443130310A537752653D
:1029E000762030323030313020000000CDCCCC3D6C
:1029F000CDCC9C400000000000007A4400FEFF4661
:102A0000100802402001002018040240103E01205E
:102A100000000020D4020020AC040020FEF788FD56
:102A2000012804BFFA48FDF752FF0220C5F8000153
:102A3000FDF761FFFEF77AFA002800F09E86F54D5B
:102A40004FF47A72E969C7F8D010514340F66472C6
:102A500091FBF2F1E86BC7F8EC10C7F8D40095F8D9
:102A60005910C7F8F41095F85820012A04BF2A8C91
:102A7000022A46D17A6C012A40D07E81C7F8F04004
:102A800001290CBFA0F5C87000F5C87003F067F805
:102A9000D7F8E8000028C4BF401EC7F8E800DBF8FC
:102AA000000010F4005F386D0CBF40F0080020F00B
:102AB00008003865D848006810F0200F386D0CBF4A
:102AC00040F0020020F0020020F0F000386595F898
:102AD0005010032908BF40F010001DD0022908BF84
:102AE00040F0200018D0012908BF40F0400013D06A
:102AF000002908BF40F080000ED00EE0B879012810
:102B000002D0C7F8F040C3E7788900281ABF401EFA
:102B10007881C7F8F060BBE7386595F8590001285F
:102B2000386D0CBF40F4807020F480703865B5F9C2
:102B30002000396D01280CBF41F0040121F004018F
:102B40003965D7F830114FF6E852914209DD7A6CB9
:102B5000012A0DD13A6DC7F8E89042F400523A6567
:102B600006E0D7F8E8201AB93A6D22F400523A6527
:102B700001280ED13F2909DA796C01290DD1396D6F
:102B8000C7F8E89041F48041396506E0D7F8E810CD
:102B900019B9396D21F48041396595F85810B7F9A4
:102BA0000C20914203D0B981FE710321B963DFF893
:102BB0006CA29AF8381011F0010F29D0B9690A29CE
:102BC0009CBF481CB86123D9022808BFC7F8304110
:102BD000B7F82C1192488171090AC171B7F8301108
:102BE0000172090A4172B7F834118172090AC1727F
:102BF000396D01740A0A42740A0C8274090EC17498
:102C0000FEF769F818B114218548FEF745F8BC6154
:102C100095F858000128386D1CBF20F40070386505
:102C20005FD097ED470AD7ED0B0AB4EE600AF1EEDC
:102C300010FA03D00320B86387ED0B0A3878012817
:102C40002ED003F019F8CAF8040095F8581004299A
:102C5000DAF818107AD059B1132909D04000CAF80F
:102C60000400B5F922000A28BCBF0A2003F013F8BB
:102C7000DBF8000026EA1010CAF8100001F04EFB45
:102C8000CAF81400DAF8040000281CBF41F234200E
:102C90007863DAF8100000281CBF41F23420786312
:102CA000387A012804BF1020CAF81800386D0CBF0C
:102CB00040F4004020F40040DFF860A13865DAF805
:102CC000180001F058FDDAF818007863D7F874019D
:102CD00000281CBF401EC7F87401387AA8B300F062
:102CE000C8B940F400703865288C01281DD1032034
:102CF000FDF7C2FB00EE100A4A49B8EE400A10EE9A
:102D0000100A87ED470A8842C4BF9FED470A87ED46
:102D1000470AD7ED3E0A60EE200A95ED030AB8EEA9
:102D2000C00A80EE801A87ED471A288C02287FF4AB
:102D300078AF97ED330ADFED3D0AB8EEC00A80EEBA
:102D4000201A87ED481A6CE700E0BAE0002983D129
:102D500000288DD0D7F86011884218BFC7F870419D
:102D6000396C334A491E396440F6010111803149FA
:102D70000E80B5F9201001297AD197ED3E0A2E4B2D
:102D800010EE102A9A4222DD122805DDD7ED470AFF
:102D900070EEC90AC7ED470A10F1120F05DAD7ED38
:102DA000470A70EE890AC7ED470A5F2805DDD7EDAF
:102DB000470A70EEE90AC7ED470A10F15F0F4CDAD7
:102DC000D7ED470A70EEA90AC7ED470A45E0122879
:102DD00008DDD7ED470A9FED191A70EEC10AC7ED5D
:102DE000470A0BE010F1120F08DAD7ED470A9FED02
:102DF000131A70EE810AC7ED470A23E05F2821DD30
:102E0000D7ED470A9FED0E1A70EEC10A23E02FE0BE
:102E1000AC040020103E012010080240703E01204A
:102E2000A402002000C0734500C073457B14034317
:102E3000D4020020D602002000007A440AD7233CA6
:102E400048E1FA3E10F15F0F07DAD7ED470A1FEDB0
:102E5000041A70EE810AC7ED470AC0EE0A0A97ED20
:102E6000470AF4EEC00AF1EE10FA98BFC7ED470A20
:102E7000022923D1122806DD97ED480A30EE490ACF
:102E800087ED480A09E010F1120F06DA97ED480ABB
:102E900030EE090A87ED480A06E05F28C4BF97EDC7
:102EA000480A30EE690A07DC10F15F0FBCBF97EDEE
:102EB000480A30EE290A01DA87ED480A0320B86390
:102EC000D6E695F85800042812BF0028288C02285E
:102ED00003D0288C01284ED0CBE095F85A0000286A
:102EE00008BFC7F8189195F8590097ED460AD7ED35
:102EF000480A0128B8EE400A60EE200A9FEDFE1A4B
:102F0000E86B80EE810A20EE280ABDEEC00A10EEC2
:102F1000101A24D0421AFA63E969411A4B1E9342EF
:102F2000D4BF1146F963884200DAF863D7F8180174
:102F30000A283CBF401CC7F8180197ED480AB5EEB7
:102F4000C00AF1EE10FA04BFE86BF863D7E90F018D
:102F5000814218BF02F003FEF86B3864B9E70A1823
:102F6000FA63E96901444B1C9342B4BFF96311460B
:102F70008842DBDDD9E795F85000042828BFC7F860
:102F800040416BD2786C01286CD0C7F84041E86BA7
:102F9000F86397ED500A95F85010D848B8EEC00A7B
:102FA00000EB8100C0EE280A90ED000A20EE0A0A2C
:102FB00020EE200A87ED490AD5ED150A20EE800A99
:102FC00087ED080AD7ED470A30EEC00A20EE0A0A5C
:102FD000BDEEC00A10EE101A7961E869B1EB201F4E
:102FE000C4BF0111796101117A6949429142C8BF98
:102FF0007961B96BA9B37A69002AB8BF01F00201FF
:10300000C8BF01F0010100D0B96395F859107A6981
:103010000129F96B7ED08A1AFA63E96B081A90428B
:10302000D4BF1046F8638142B8BFF963F86B081A41
:10303000FA21484300EE100AB8EEC00A80EE281AC2
:1030400087ED481AF5EEC00AF1EE10FA03D1E86BED
:10305000F86387ED488AF86B02F081FD786900908B
:1030600001E058E043E0D7E90E13A5A0EA6B00F0B9
:1030700031FD97ED470AB5EEC00AF1EE10FA38BF00
:1030800087ED478A97ED480AB5EEC00AF1EE10FACF
:1030900038BF87ED488AFA21E86947F6FF7A484346
:1030A00090FBFAF100EE101AD7ED480AB8EEC00A0C
:1030B000B4EEE00AF1EE10FA07D890FBFAF000EE59
:1030C000100AB8EEC00A87ED480A0120FDF7D4F9CE
:1030D00000B2C7F84C01EA6BE969D7F83CC0531A53
:1030E000634539D1396D41F48061396554E0F86B3D
:1030F00002F035FD4010C7F8400195F8501005EB7F
:103100008101096CB0EB610FC4BFA0EB6100C7F88F
:1031100040013EE708E079690029BCBF4FF0FF316C
:103120007961C8BF7E6170E70A44FA63E96B0844BD
:103130009042B4BFF86310468142C8BFF963F86B90
:10314000401AFA21484300EE100AB8EEC00A80EE99
:10315000281A87ED481A75E71144614504BF396D97
:1031600041F4806117D0A0F1FA0140F6E952914292
:1031700009D3796C012916D1396DC7F8E89041F46B
:10318000806139650BE0D7F8E810002904BF396D7C
:1031900021F4806100D13965796C012903D1396D41
:1031A00021F480613965D7F8FC1001F114029042D6
:1031B000DEBFA1F11402824287ED528A0ADD401A75
:1031C00000EE100AB8EEC00ADFED560A80EE201AB3
:1031D00087ED521A97ED520A20EE280ADFED52AA27
:1031E000C0EE2A0ABDEEE00A10EE100AC7F83C0154
:1031F000B0F5004FA8BFC7F83CA105DA10F5004FA5
:10320000DCBF4A48C7F83C010020FDF735F900B2A1
:10321000C7F85001396D41F4805139653A69002A87
:103220001CBF521E3A6107D0D7F8E820002A04BF1D
:1032300021F4006139651FE0B0F5706F03DD95F88A
:103240005920012A07D040F2B7729042ECDA95F883
:103250005920012AE8D07A6C012A07D0D7F8E82053
:10326000002A04BF21F40061396504E041F40061E3
:10327000C7F8E89039657C64D7F8001101F127029E
:1032800090420BDD401A00EE100ADFED290AB8EE7D
:10329000C00A80EE201A87ED511A11E0A1F1270231
:1032A0009042A8BF87ED518A0ADA401A00EE100A50
:1032B000DFED200AB8EEC00A80EE201A87ED511A21
:1032C00097ED510AB5EEC00AF1EE10FA05DDDFED1B
:1032D0001A0A30EE600A87ED510AB5EEC00AF1EE27
:1032E00010FA05D2DFED140A30EE200A87ED510AFC
:1032F000BA4697ED520A21E000401C45049B0008A5
:103300000D0A466173743A2564204F66663A256457
:1033100020466565646261636B3A2564204572727C
:103320003A2564001D5A0441000066430180FFFFF6
:103330000000A8420000AA429A99993EDFEDFE0AD9
:1033400043F6982120EE200A87ED520A97ED510AA4
:1033500020EE0A0ABDEEC00A10EE100AC7F83801C6
:10336000884202DC4942884201DACAF83811DAF8A8
:103370004400E8B3DAF83001DAF8401100EBC0009D
:103380000844EE4981FB00208210A2EBE070CAF8ED
:103390003001DAF83401DAF8382100EBC0001044CB
:1033A00081FB00108110A1EBE077CAF834719AED2F
:1033B000480A60EE280A80EEAA0A10EE100A06F00B
:1033C00029FB9FEDDF1B53EC112B06F00DF906F0E6
:1033D000B3F9CAF82C0128B195F85900012824D076
:1033E000002F01DDCAF83441DAF8E80030BB1FE0F5
:1033F000FFE7CAF83441CAF82841CAF82C41CAF894
:1034000030419AF80800002804BFE86BCAF83C0075
:10341000DAF8E8000028E5D1DAF8500020F490400E
:1034200020F08040CAF85000DCE7002FDCDAD9E752
:10343000DAF8500020F08040CAF850009AF80800EE
:1034400001285CD118F0080F08F10101B5F922003C
:103450000FFA81F804BF00EBD070401002F01BFCA3
:10346000DBF80000C0F34031B7480068C0F34010FB
:10347000084309D00F20CAF874018AF808408AF876
:103480000140BAF804012884DBF8000010F0100FA6
:1034900005D18AF80840B5F92000CAF804019AF865
:1034A00002000B282BD2DFE800F0061D2B3D4F5CFD
:1034B000688EA1B3DA00042085F85800B5F9200021
:1034C000CAF8040102202884CAF8444085F8504014
:1034D0008AF80440E86BA0F58070CAF80C018AF8FD
:1034E00002606DE0DAF84400002808BF022016D020
:1034F0008AF808408AF80140BAF804012884BEE03E
:10350000DAF80C0102F02BFB286485F85060DAF839
:103510004400002804BF9AF80200401CE8D18AF851
:103520000200ACE0DAF80C0102F019FB686402203A
:1035300085F85000DAF844000028D9D19AF8020042
:10354000401C8AF802009AE0DAF80C0102F007FB4E
:10355000A864032085F85000DAF844000028EDD074
:10356000C6E7DAF80C0102F0FAFAE86485F8504090
:10357000DAF844000028E1D0BAE70220FCF77CFF2B
:103580000A2810D2E86B00F58071DAF80C01884245
:1035900028BF9AF8020000F101002CBF8AF802004F
:1035A000CAF80C010AE0CAF844609AF80200401C0C
:1035B0008AF80200DAF80C01401EE863DAF80C0120
:1035C00002F0CDFA5BE0DAF84400012890D108203F
:1035D0008AF8020095F85900A98B0128A88F14BF1A
:1035E000401A084400B2CAF81001E9E7DAF81001FD
:1035F00002F0B5FA40F6CC41CAF8140188423FBF48
:1036000095F850000328401C85F8500037D395E703
:10361000DAF814014008CAF8140195F8501005EBC7
:103620008102126CB0EB620F84BFA0EB6200CAF89B
:10363000140100EE100A4548B8EE400A00EB810084
:10364000C0EE280A90ED000A9FED411A20EE010A13
:1036500020EE200A8AED080A8AF802900FE00B207B
:10366000CAF844408AF802008AF808408AF80360E1
:10367000BAF804012884B5F9220002F00CFB95F891
:103680005000012812D002281FD003282CD0FDF7AB
:10369000B7F830484FF08071816195ED150ADFED84
:1036A0002E0A20EE200A8AED3E0A2BE0FDF7A8F84C
:1036B00028484FF48071816195ED150ADFED270AE6
:1036C00020EE200A8AED3E0A1CE0FDF78EF8214824
:1036D0004FF08071816195ED150ADFED210A20EE32
:1036E000200A8AED3E0A0DE0FDF77FF819484FF4F5
:1036F0008071816195ED150AF2EE060A20EE200A2E
:103700008AED3E0A174C04F11C036068E2684142EE
:10371000606900F048FEA061DBF80000C0F3C03033
:10372000FEF734FAE060A06A002824DD10F0040FF0
:10373000A0F10100A06217E0C217863F67666666C7
:10374000000000000000E03F10080240049B000859
:10375000002474490000024000401C460080894457
:103760000000C842703E012012BF0020B5F92200BF
:10377000401C02F090FA00F043FD02F01BFA00F04A
:10378000D9F8FEF7F6BF10B51B4CD4F8F0000128AD
:103790002BD1002002F0DAF904F5BE70D4F8EC1059
:1037A000C08848434FF47A7190FBF1F0C4F8CC0024
:1037B000D4F8D0108842C8BFC4F8CC10D4F8F400B4
:1037C000D4F8CC100128D4F8D4000CBF4418441A03
:1037D000C4F3072000F0AAFAE0B200F0A7FA002034
:1037E00002F0B4F9012002F0B1F90448016821F0B7
:1037F0000401016010BD00002001002000200140F4
:103800002DE9F04104464A480126984600781746BB
:103810000D4603282FD1E819B0F5006F2BD20020F8
:1038200000F07CFA032000F081FAC5F3072000F0D5
:103830007DFAE8B200F07AFA0025002F13D90020B3
:1038400000F074FAB8F1000F08BF04F8010B07D0BC
:103850002EB114F8011B814208BF012600D00026BA
:103860006D1CBD42EBD3012000F058FA012E04BFBD
:103870000020BDE8F0810120BDE8F0812DE9F0478E
:103880008F1888460646B7F5006F24BF0120BDE8B3
:10389000F0870C46B94238BFA7F1010942D204F0C3
:1038A0001F05444518BF002D15D1002000F036FA41
:1038B000062000F03BFA012000F030FA002000F072
:1038C0002DFA022000F032FAC4F3072000F02EFA9D
:1038D000E0B200F02BFA16F8010B00F027FA1F2DCA
:1038E00018BFA1451BD10025012000F017FA0020C8
:1038F00000F014FA052000F019FA002000F016FA82
:103900008246012000F00AFA28466D1CB0F57A7F45
:1039100002D90220BDE8F0871AF0010FE7D1641C3C
:10392000A742BCD8012000F0F9F90120BDE8F087DA
:10393000260100202DE9F0419CB04F215A4800F0AB
:10394000DDF80026002844D04F28D8BF564903DCB4
:103950000E54401C4F28FBDDDFF84C811496159661
:103960001B2514AA51A14046169604F04FF9504F5A
:10397000002407EB0410416814A804F0C1FA68B1F0
:10398000641C1B2CF5DD4B4C072D22D008DC042DCC
:1039900055D0052D1DD0062D5DD005E02546F2E75A
:1039A000172D64D0182D14D0206820F01F00C4E912
:1039B0000006A660002407EB0410836842681978AB
:1039C000002963D03CA1684603F05CFF641C1B2CFB
:1039D000F1DB00F0E4F8FDF7DBF9394C2188FDF765
:1039E000DBF9B0F5FA7F08D9FDF7D2F92080A0689D
:1039F00000280CBF01200020A06000F003FB78B17C
:103A0000037B002118AA002B08DD00EB010C9CF8B9
:103A100004C002F801C0491C8B42F6DC5018467005
:103A200000F06CFB002804BF1CB0BDE8F0816068AA
:103A3000002804BF012060601CB0BDE8F08117AA17
:103A400020A1404604F0E2F81798002818BF012092
:103A5000FCF7ABFEBDE717AA1AA1404604F0D6F862
:103A60001798002818BF0120FCF78EFEB1E717AAAF
:103A700014A1404604F0CAF817980128206814BF22
:103A800020F0100040F010002060A2E70FA168466F
:103A900003F0F8FE9AE70E48016821F080510160BA
:103AA00070477047FEE70000C813002025397300F7
:103AB000149B0008BC13002025732025733A0000D6
:103AC000B8020020252A73256400000025733A00FF
:103AD00004ED00E00FB410B53E4C03AA6068B0F5E9
:103AE0007A7F00D301BE21680844029903F0B8FE32
:103AF00061680144616010BC5DF814FB2DE9F0477A
:103B0000344E07460025B0688846002808BFF76095
:103B1000FCF7AAFF4FF6FF7A0446504518BF4FF056
:103B2000000939D0082C21D00A2C19BF0D2CB068FF
:103B30000125C6F8089018BF40450AD2214626A0A4
:103B4000FFF7C8FFF06800F8014BF060B068401C58
:103B5000B060FCF789FF04465045E3D1E5B1F06859
:103B600000F8019BF060C01BBDE8F087B06800283A
:103B7000EFD0082118A0FFF7ADFF202116A0FFF716
:103B8000A9FF082114A0FFF7A5FFB068401EB06090
:103B9000F068401EF060DCE70020BDE8F08710B55B
:103BA0000C4C6068002808BF10BDFCF78EFF002891
:103BB00008BF10BDD4E90001FCF76BFF074821687E
:103BC00081420CBF00F57A700448206000206060DC
:103BD00010BD0000C402002025630000181400205E
:103BE00038B45D4B186840F0040018605B48016809
:103BF00041F4004101605A48016821F08071016080
:103C0000016841F00071016000F1040CDCF8001063
:103C100021F48051CCF8001052490A6822F0407219
:103C20000A600C1F226862F0407222604E4A1568DA
:103C300025F4702545F4C0251560056825F4801528
:103C40000560056845F400150560DCF8005025F4B2
:103C50008065CCF80050D1F800C02CF4401CC1F8AD
:103C600000C0D4F800C06CF4401CC4F800C0D2F806
:103C700000C02CF4706C4CF4C06CC2F800C0D0F8DA
:103C800000C02CF4800CC0F800C0D0F800C04CF488
:103C9000000CC0F800C0086840F4800008600868A4
:103CA00020F400000860106820F4704040F4C04028
:103CB0001060186840F0080018602C490420086063
:103CC0002B48016841F010010160016821F02001DA
:103CD0000160001D016821F00401016025480168B0
:103CE00021F030010160001F016861F030010160C6
:103CF0002148018821F040010180001F018821F046
:103D0000400101804FF449710180018841F0400178
:103D100001801A480088009038BC7047002814BF02
:103D200004204FF4802011490860704714490A8824
:103D300012F0020F03D10A8812F0020FFBD00F4AD3
:103D40001080088810F0010F03D1088810F0010FCF
:103D5000FBD01088C0B27047303802404038024073
:103D6000000802400C08024024080240180C0240DF
:103D7000000C02400C0C0240043C00400C3C004093
:103D8000083C0040714981B0086840F001000860BB
:103D90006F48026842F4805202606E48026822F462
:103DA00080420260026842F400420260426822F0EF
:103DB00080024260C26822F44042C260826842F4DB
:103DC00040428260026A22F0704242F0A0420262E7
:103DD000026822F480620260026842F400620260BB
:103DE000426822F020024260C26822F44062C2604F
:103DF00020228261826842F440628260026A22F478
:103E0000700242F4A0020262086840F002000860FA
:103E100051488A1402605148026842F08072026080
:103E2000026822F000720260001D026822F48052D3
:103E300002604B48026822F040720260001F026874
:103E400042F040720260474A908820F04000908023
:103E5000108820F0400010800920B0FA80F0C0F1F6
:103E60002003D800083800F0380040F4417010807A
:103E7000908840F002009080086840F4800008605C
:103E80003948016821F001010160016811F0010F5A
:103E900003D0016811F0010FFBD1DFF8D0C04FF45F
:103EA0000061CCF80010016821F0606101600168D8
:103EB00041F0C0610160016841F480610160016806
:103EC00041F0400101602B49294808600020091F8A
:103ED0000860108840F04000108090890090012018
:103EE00025499840B1FBF0F001B07047002814BF9D
:103EF0004FF480504FF080501749086070471A4ABD
:103F0000136823F001031360136813F0010F03D04B
:103F1000136813F0010FFBD1184B186018480160AB
:103F20001249C0140860106840F00100106070472A
:103F30001448006810F4006F06D00A48008910F099
:103F4000800F04BF012070470020704730380240C6
:103F500044380240000002401804024000040240BD
:103F60000C04024000300140886402400C640240AE
:103F70000C3001409064024000BD01059464024091
:103F80008C640240046402405E4B186810F0030F1A
:103F900008BF704710B45C4A516802EB0110491C1D
:103FA00051605A49D1F800C000F10C001CF0040F18
:103FB0004FF0000C0EBF80F80DC0012444730C6854
:103FC0000CBF640DC4F3D10404600968C1F340015F
:103FD00081734F49096801F00F0101734D49096868
:103FE00041604D49096881605068082808BFC2F8DF
:103FF00004C01068401C1060186840F02000186071
:1040000010BC7047DFF814C1DCF8000020F002009B
:10401000CCF800003C4B1968002908BF00200BD0E9
:104020009A6803EB0210521C0C309A60082A04BFF5
:1040300000229A60491E1960DCF8001041F002016C
:10404000CCF8001070473648006810F0010F08BF28
:1040500070472DE9F001314D286820F001002860FB
:10406000304C2268002A04BFBDE8F0017047A16807
:1040700004EB0110491CDFF8B0C00026A160CCF8A9
:104080000060DCF80070437E0C30002B07BF038813
:104090005B054FF00408036818BF48EAC3033B43BD
:1040A000CCF80030DCF80070837B002B18BF0223B3
:1040B0003B43CCF800301D4F43683B603F1D836895
:1040C0003B601B4B1F6827F00F071F601F68007BBA
:1040D00000F00F0038431860286840F001002860A5
:1040E000DCF8000040F00100CCF80000082908BF0F
:1040F000A660501E2060BDE8F00170470D480068C2
:10410000704700000C640040E81B0020B0650040D0
:10411000B4650040B8650040BC65004014640040D0
:1041200008640040741C00208065004088650040E1
:104130008465004018640040284881B0016841F05F
:10414000020101602648016821F480510160016884
:1041500041F400510160016821F48041016001686F
:1041600041F4004101601F48016821F0706141F095
:1041700000710160016821F0704141F0005101605F
:104180001948016841F00401016018494FF0FF30FF
:1041900008601748018840F2011211430180154957
:1041A000032008801448018841F0010101800021AA
:1041B00000910098401C0090B0F57A7FF9DB0F4821
:1041C000016001B070470D4A116800231360022896
:1041D00004BF4800414208B2704700003038024036
:1041E0000004024020040240403802402C080040F5
:1041F000180800400808004000080040240800405B
:104200002DE9F041304C314D314E606A314FA0F113
:104210000A0120460629C06A04D2DFE801F011062F
:104220001E111111FCF7D2FA0AE02968012902D007
:1042300001280ED00FE001280BD10CE0FCF7B5FAF5
:10424000A06A0A38062816D2DFE800F03B19233BA3
:104250003B3B0020F2E70120F0E731683A68490B68
:1042600041EA521111F0010F02D00128F3D1F0E719
:104270000128F0D0EDE7BDE8F041FCF776BA2868F8
:104280000128206B02D0012811D015E001280ED1A1
:1042900012E030683968400B40EA511010F0010F0D
:1042A000206B02D0012802D006E0012804D0BDE82E
:1042B000F0410020FCF768BABDE8F0410120FCF7AE
:1042C00063BABDE8F0810000103E012064010020C7
:1042D000100402401008024010B484460020F84B3D
:1042E000024603EB02142468644502D0521C162ACD
:1042F000F7D9002901BF03EB0210406810BC7047DA
:10430000012901BF03EB0210806810BC704702292D
:1043100004BF03EB0210C06810BC704770B5E94DD4
:10432000044600262869052106283AD2DFE800F075
:10433000030C39192C30012C33D10120202628619F
:10434000FCF726FDA8802CE0FCF722FDA988FCF7ED
:1043500023FDC82825D9012C0CBF0320002028618B
:104360001FE0012C04D02961FCF712FDE88018E061
:10437000FCF70EFDA988FCF70FFDB0F57A7F10D988
:104380000420102628610CE0002C08BF296108E0F9
:10439000FCF7FEFCE988FCF7FFFCC82884BF00207E
:1043A0002861304670BD2DE9F047C64E82469846DA
:1043B0007069B061C44891460D460078012802D169
:1043C000FCF7E6FC308170690027002818BF15282B
:1043D00009D0FCF7DDFC3189FCF7DEFC42F21071FC
:1043E000884288BF7761B9F1010F04D1706915283F
:1043F0001CBF15207061192DCCBF0120002015F1C4
:10440000190FB4BF01210021441AFCF7C1FC318906
:10441000FCF7C2FCC82838BF00245AEA040002D0C6
:10442000FCF7B6FC3081002DACBF284668426428FA
:10443000D8BFF76104DDF0690528BCBF401CF061FE
:10444000012C16D0B4F1FF3F19D01AF0200F04D080
:1044500002217069FFF740FF706170690C380A280B
:1044600080F07A81DFE800F05789ADDDEFEE7B2840
:1044700011ED00217069FFF72FFF7061EDE7012159
:104480007069FFF729FF7061E7E7B4F1FF3F0ED0D5
:10449000012C04BF8D4880F85C7002D0002C00F025
:1044A0005B8140F6010030800B2000F04DB9874958
:1044B000012081F85C00F4E700EE105AB8EEC00A63
:1044C000DFED830A20EE200ABDEEC00A10EE100ACE
:1044D000002800F0418100EE105A7C49B8EEC00A75
:1044E0004A8C20EE200ABDEEC00A10EE100A1044DD
:1044F00000B248841428B8BF142003DB6428C8BF66
:10450000642000DD4884D8F8000040F02000C8F89E
:10451000000000F021B9B4F1FF3F03D0012C0FD00F
:1045200000F01AB96948018C022907D19FED690A88
:10453000694981ED000A694981ED000A01210CE019
:104540006248018C012907D19FED620A624981ED21
:10455000000A624981ED000A02210184FCE0B4F105
:10456000FF3F05D0012C04BF584880F85A70F3E093
:104570005649012081F85A00EEE0002C10DA534829
:1045800090F8591039B99FED530A544981ED000A4A
:10459000514981ED000A4FF0010180F85910DBE02C
:1045A0007DDD4A4890F85910012907D19FED490A4D
:1045B0004A4981ED000A484981ED000A80F85970A6
:1045C000CAE0002C6BD046484068122803DD3F4902
:1045D000CA69793ACA6110F1120F03DA3B49CA6914
:1045E0007932CA615F2804DD3849CA69A2F2B6424D
:1045F000CA6110F15F0F04DA3448C16901F2B641B3
:10460000C161324947F2C252C869904203DC40F6A8
:104610003102904200DCCA6140F6010030800A207D
:1046200092E0002C3BD02E48406812280CDD274930
:10463000DFED2C0A91ED150A30EE600A81ED150AC6
:104640000FE085E063E057E010F1120F09DA1F492F
:10465000DFED240A91ED150A30EE200A81ED150AEE
:1046600009E05F2807DD1948DFED1F0A90ED150A04
:1046700030EE600A09E010F15F0F08DA1348DFED51
:104680001A0A90ED150A30EE200A80ED150A0F483F
:10469000164A416D8A42B8BF9FED150A00E054E00A
:1046A000B8BF80ED150A134A416D9142BCBF9FED22
:1046B0000D0A80ED150A40F6010030800D2043E020
:1046C000F8020020D402002028010020103E012022
:1046D000CDCC4C3D00000000400200203C020020F8
:1046E000703E0120CDCCCC3D6666663F8096184B6F
:1046F0008096184BCDCCCC3D3CB3FF4901200870CF
:10470000FE490F70FE490F70FE49087024E0B4F1B5
:10471000FF3F02D0012C0AD012E0FB4991F858006B
:10472000002818BF042011D081F8580008E0F6498D
:1047300091F85800012801D0042807D081F858705A
:1047400040F6010030800520708005E00120EBE795
:10475000B9F1000F08BF7761D6E90501884207D09B
:104760000028E948B0F9220018BF401C01F093FA74
:104770007069BDE8F087F0B5E44C0546A1B0206A49
:104780004FF6FF77A8420ED060B9002001F096FAEC
:1047900018237F2210210020009702F0EDF8384600
:1047A00001F08CFA2562162D81F00E81DFE815F0FC
:1047B000160014014101CE024F0396038E048806B1
:1047C00041062007D60698076E01FF028003F20516
:1047D000C603B906720654070A07DF07CA4E96F8E1
:1047E0005800012816D0CAA216A8E16803F04AF8BA
:1047F000CC480068012813D0CB48006800281ED0A0
:10480000CA48006810F4005F0FD0C9A102A803F0E5
:1048100039F818E0CAA216A8E16803F033F8E7E710
:10482000CCA102A803F02EF80DE0CF48006810F0EC
:10483000200F04D0CDA102A803F024F803E0D0A1FA
:1048400002A803F01FF80221002001F0EBFB02A8F0
:1048500002F04DF8CF48008810F4006F04D0CEA1CC
:1048600002A803F00FF80BE0CF48006805F0D2F87B
:1048700041EC100BCDA153EC102B02A803F002F871
:104880000421002001F0CEFB02A802F030F8308CA9
:1048900001285BD0C9A102A802F0F4FF0621002084
:1048A00001F0C0FB02A802F022F8C9A102A802F0A0
:1048B000E9FF308C012896F85C0054D0002875D0B0
:1048C000C8A102A802F0DEFF02AA0CA8E16802F06B
:1048D000D9FFB54890ED000ADFEDC70AC748F26975
:1048E00020EE200A80FB0220BCEEC00AC210A2EB20
:1048F000E07010EE101AB1FBF0F0461C4AF655506D
:1049000001F0DCF918237F221021002001F034FC93
:104910004FF6FF7001F0D2F9022E07D9701EC2B215
:10492000162312210220009702F026F8002001F041
:10493000C5F9F0B216237E221221009702F01CF86E
:104940004FF6FF7001F0BAF901F067B8AC480068A3
:1049500005F060F841EC100BAAA153EC102B02A853
:1049600002F090FF9AE760B1AA48006805F052F89B
:1049700041EC100BA8A153EC102B02A802F082FF0F
:10498000A2E7A94890ED000A10EE100AB0F17E5F90
:10499000DFEDA60A20EE200A10EE100A0CDA05F070
:1049A00039F841EC100B53EC102B00E00FE0A0A104
:1049B00002A802F067FF87E705F02CF841EC100B26
:1049C000A0A153EC102B02A802F05CFF7CE7A1A190
:1049D00002A802F057FF77E7A3A216A8E16802F049
:1049E00051FFA6A102A802F04DFF0221002001F014
:1049F00019FB02A801F07BFFA5A102A802F042FF6B
:104A00000421002001F00EFB02A801F070FFA5A117
:104A100002A802F037FF0621002001F003FB02A8E4
:104A200001F065FF6AA20CA8E16802F02BFF00F01C
:104A3000F4BFA1A216A8E16802F024FFA3A102A876
:104A400002F020FF0221002001F0ECFA02A801F0A0
:104A50004EFFA2A102A802F015FF0421002001F0E0
:104A6000E1FA02A801F043FFA1A102A802F00AFFA7
:104A70000621002001F0D6FA02A801F038FFA1A219
:104A80000CA8E16802F0FEFE00F0C7BF9EA216A8C7
:104A9000E16802F0F7FE1C48B0F92000012806D0BA
:104AA000022808D19DA102A802F0ECFE03E0A0A11B
:104AB00002A802F0E7FE0221002001F0B3FA02A8EA
:104AC00001F015FF6DA102A802F0DCFE0421002018
:104AD00001F0A8FA02A801F00AFF85A102A802F0DD
:104AE000D1FE0621002001F09DFA02A801F0FFFE90
:104AF00084A20CA8E16825E1280100202201002001
:104B00002301002021010020103E0120D4020020BA
:104B100020204F5554505554204C4556454C20208C
:104B200000000000640100209402002010040240F4
:104B3000496E7465726C6F636B206F70656E2100D7
:104B40004D4F44554C4154494F4E204C4556454CD1
:104B500000000000878820204C41534552204F4ED2
:104B60002020878800000000100802405475726EF3
:104B700020746865206B6579206F6E21000000004D
:104B80002020204C4153455220204F4646202020D3
:104B90000000000070010020204F70656E20436906
:104BA00072637569742120004002002020497365FA
:104BB000743A25362E3266206D41200020507365F0
:104BC000743A202D204E41202D202020000000008E
:104BD00020202020202020202020202020202020D5
:104BE000000000002050573A2020202D204E412068
:104BF0002D2020200000000000000243D34D621051
:104C00003C0200202A507365743A25362E32662005
:104C10006D572000400100202050573A20202536B3
:104C20002E3266206D5720004402002000007A4496
:104C30002050443A202025352E3166202075412011
:104C4000000000002050443A2025352E31662020F7
:104C5000754120002050443A2020202D204E412034
:104C60002D202020000000004F5054494F4E204D71
:104C7000454E55202020202000000000557365205F
:104C800074686520776865656C82202000000000EC
:104C9000746F2073656C65637420746865202020D0
:104CA000000000007375626D656E752E2020202057
:104CB000202020200000000031204D4F44452020BE
:104CC000202020202020202000000000507265734A
:104CD00073204D454E5520616E642000757365202C
:104CE00074686520776865656C822020000000008C
:104CF000746F206368616E67652E2020202020205D
:104D0000000000000909090053454C454354204D5B
:104D10004F4445202020202000000000434F4E53E8
:104D200054414E542043555252454E540000000009
:104D3000434F4E5354414E5420504F57455220201C
:104D40000000000002F09EFD00F067BEF7A216A86A
:104D5000E16802F097FDAFF28C0102A802F092FD2B
:104D60000221002001F05EF902A801F0C0FDAFF2BF
:104D7000940102A802F086FD0421002001F052F9FE
:104D800002A801F0B4FDAFF2980102A802F07AFD8A
:104D90000621002001F046F902A801F0A8FDAFF2BB
:104DA0009C020CA8E16802F06DFD00F036BEE4A2A2
:104DB00016A8E16802F066FDE6A102A802F062FD15
:104DC000E74890F85900012829D0E6A102A802F08E
:104DD00059FD0221002001F025F902A801F087FD0C
:104DE000E5A102A802F04EFD0421002001F01AF90D
:104DF00002A801F07CFDAFF27C1102A802F042FD96
:104E00000621002001F00EF902A801F070FDAFF2BA
:104E100020120CA8E16802F035FD00F0FEBDDBA118
:104E200002A802F02FFD0221002001F0FBF802A8E9
:104E300001F05DFDDAA202A8E16802F023FD042181
:104E4000002001F0EFF802A801F051FDD3E7D9A24C
:104E500016A8E16802F016FDAFF2901102A802F068
:104E600011FD0221002001F0DDF802A801F03FFD54
:104E7000AFF2981102A802F005FD0421002001F014
:104E8000D1F802A801F033FDAFF29C1102A802F0A4
:104E9000F9FC0621002001F0C5F802A801F027FD69
:104EA000AFF2A0120CA8E16802F0ECFC00F0B5BD76
:104EB000C5A216A8E16802F0E5FCA6A102A802F0CE
:104EC000E1FCA748FA21C069484347F6FF7190FB0F
:104ED000F1F2C2A102A802F0D5FCECE5C3A216A82B
:104EE000E16802F0CFFCAFF21C2102A802F0CAFC7C
:104EF0000221002001F096F802A801F0F8FCAFF2C0
:104F0000242102A802F0BEFC0421002001F08AF84E
:104F100002A801F0ECFCBAA102A802F0B3FC062141
:104F2000002001F07FF802A801F0E1FCAFF22C2292
:104F30000CA8E16802F0A6FC00F06FBDB4A216A8B0
:104F4000E16802F09FFCAFF2783102A802F09AFC0F
:104F5000B4480078012812D0B3480078012836D030
:104F6000B2480068B249C0F340300968C1F340114B
:104F700008437AD0AFA102A802F084FC81E0B2A17C
:104F800002A802F07FFC0221002001F04BF802A8E9
:104F900001F0ADFCB1A102A802F074FC04210020D4
:104FA00001F040F802A801F0A2FCB1A102A802F0B1
:104FB00069FC0621002001F035F802A801F097FCF9
:104FC000B0A20CA8E16802F05DFC00F026BDB2487A
:104FD0000078012827D0B1A102A802F053FC0221D9
:104FE000002001F01FF802A801F081FCB0A102A886
:104FF00002F048FC0421002001F014F802A801F09E
:1050000076FCAFA102A802F03DFC0621002001F0D1
:1050100009F802A801F06BFCAEA20CA8E16802F04E
:1050200031FC00F0FABCB0A102A802F02BFC022176
:10503000002000F0F7FF02A801F059FCAFA102A880
:1050400002F020FC0421002000F0ECFF02A801F097
:105050004EFCAFA102A802F015FC0621002000F0D2
:10506000E1FF02A801F043FC00E006E0ADA20CA8BD
:10507000E16802F007FC00F0D0BCAFA102A802F08A
:1050800001FC0221002000F0CDFF02A801F02FFC5E
:10509000AEA102A802F0F6FB0421002000F0C2FF3E
:1050A00002A801F024FCADA102A802F0EBFB06214E
:1050B000002000F0B7FF02A801F019FCAFF2F042A7
:1050C0000CA8E16802F0DEFB00F0A7BCA8A216A8BD
:1050D000E16802F0D7FBAFF20C4102A802F0D2FB6C
:1050E0000221002000F09EFF02A801F000FCAFF2B8
:1050F000144102A802F0C6FB0421002000F092FF38
:1051000002A801F0F4FBAFF2184102A802F0BAFBCA
:105110000621002000F086FF02A801F0E8FB99A21A
:105120000CA8E16802F0AEFB00F077BC3220504FD3
:105130004C415249545920202020202020000000BA
:10514000504F4C4152495459205459504520202029
:1051500000000000090909090909090920000000E7
:10516000103E0120414E4F44452047524F554E447A
:105170004544202000000000436F6E6E6563746933
:105180006F6E3A20208B8920000000004341544874
:105190004F44452047524F554E44454400000000BF
:1051A000436F6E6E656374696F6E3A2020898A2042
:1051B0000000000033204D41582043555252454EC7
:1051C0005420202020000000534554204D415820F9
:1051D00043555252454E5420000000004D41582086
:1051E000493A202564206D41202020003420474189
:1051F000494E2053454C4643414C202000000000BE
:10520000746F2063616C6962726174652E20200086
:1052100053544152542053454C462D43414C202079
:10522000000000002801002021010020100402409D
:1052300010080240496E7465726C6F636B20657272
:10524000726F72210000000043616C6962726174C8
:10525000696E67206E6F772000000000706C6561DA
:1052600073652077616974202E2E202000000000D5
:105270004D454E5520746F2061626F72742020205E
:10528000000000008788204C4153455220204F4E9B
:1052900020878820000000002301002087884341E8
:1052A0004C20454E455247495A45532000000000C6
:1052B000544845204C4153455221505245535300C8
:1052C0004D454E5520544F2041424F5254204F528D
:1052D00000000000574845454C20544F205354418E
:1052E000525487880000000043616C6962726174E7
:1052F000696F6E20446F6E65000000004D6F76652B
:105300002074686520776865656C202000000000C7
:10531000746F20706572666F726D207468652020EE
:10532000000000006761696E2063616C2061676145
:10533000696E2E200000000043616E2774204361D7
:105340006C69627261746521000000004D6F7665C2
:105350002074686520776865656C8200746F2073BF
:105360007461727420616761696E2E2E0000000006
:105370003520504420492F502020464143544F525D
:10538000000000002020202020202020202020209D
:1053900020202000FEA216A8E16802F073FAAFF206
:1053A0004C2102A802F06EFAFE48406D04F032FB78
:1053B00041EC100BFCA153EC102B02A802F062FA96
:1053C0000221002000F02EFE02A801F090FAAFF2B8
:1053D000547102A802F056FA0421002000F022FEC7
:1053E00002A801F084FAAFF2F86102A802F04AFACA
:1053F0000621002000F016FE02A801F078FAEF481E
:1054000090ED000ADFEDEE0A20EE200A10EE100A01
:1054100004F000FB41EC100BEAA153EC102B02A8A6
:1054200002F030FA02AA0CA8E16802F02BFA00F0B0
:10543000F4BAE8A216A8E16802F024FAAFF2747197
:1054400002A802F01FFA0221002000F0EBFD02A8E2
:1054500001F04DFAAFF27C7102A802F013FA0421B8
:10546000002000F0DFFD02A801F041FAAFF28071E8
:1054700002A802F007FA0621002000F0D3FD02A8DE
:1054800001F035FAAFF284720CA8E16802F0FAF983
:1054900000F0C3BAD4A216A8E16802F0F3F9C1483B
:1054A00090F85A00012805D0D4A102A802F0EAF928
:1054B000FFF701BBD5A102A802F0E4F9FFF7FBBAA0
:1054C000D7A216A8E16802F0DDF9AFF6000102A844
:1054D00002F0D8F90221002000F0A4FD02A801F09A
:1054E00006FAAFF6080102A802F0CCF90421002068
:1054F00000F098FD02A801F0FAF9AFF60C0102A83D
:1055000002F0C0F90621002000F08CFD02A801F095
:10551000EEF9AFF610020CA8E16802F0B3F900F062
:105520007CBAC4A216A8E16802F0ACF99D4890F8D4
:10553000580038B101280BD0C3A102A802F0A2F98B
:10554000FFF7B9BAC5A102A802F09CF9FFF7B3BAF8
:10555000C7A102A802F096F9FFF7ADBAC9A102A847
:1055600002F090F902AA16A8E16802F08BF9CAA12C
:1055700002A802F087F90221002000F053FD02A8E2
:1055800001F0B5F9AFF6AC0102A802F07BF90421F5
:10559000002000F047FD02A801F0A9F9AFF6B00124
:1055A00002A802F06FF90621002000F03BFD02A8DE
:1055B00001F09DF9AFF234220CA8E16802F062F923
:1055C00000F02BBAB9A216A8E16802F05BF97548A1
:1055D00090F85C00012805D0B9A102A802F052F9A8
:1055E000FFF769BABBA102A802F04CF9FFF763BA52
:1055F000BDA102A802F046F902AA16A8E16802F0CD
:1056000041F9A5A102A802F03DF90221002000F015
:1056100009FD02A801F06BF9AFF6401102A802F0F3
:1056200031F90421002000F0FDFC02A801F05FF92F
:10563000AFF6441102A802F025F90621002000F07F
:10564000F1FC02A801F053F9AFF2C8220CA8E168FE
:1056500002F018F900F0E1B9A8A102A802F012F9CD
:1056600002AA16A8E16802F00DF94E4EB6F9220022
:105670001E28B8BF1E2003DB6428C8BF642000DDDD
:105680007084B6F92220A2A102A802F0FBF8022140
:10569000002000F0C7FC02A801F029F9AFF2543154
:1056A00002A802F0EFF80421002000F0BBFC02A8E1
:1056B00001F01DF99BA102A802F0E4F806210020E8
:1056C00000F0B0FC02A801F012F9B6F9220000F0D7
:1056D000E2FAAFF250320CA8E16802F0D3F89CE194
:1056E00095A216A8E16802F0CDF8AFF61C3102A829
:1056F00002F0C8F82B4E95A196F85000421C02A863
:1057000002F0C0F80221002000F08CFC02A801F099
:10571000EEF8F069FA21484347F6FF7190FBF1F289
:105720008FA102A802F0AEF80421002000F07AFC5C
:1057300002A801F0DCF8706D04F06CF941EC100B7C
:105740008BA153EC102B02A802F09CF8062100203C
:1057500000F068FC02A801F0CAF889A102A802F0D2
:1057600091F802AA0CA8E16802F08CF855E1AFF6B6
:10577000A03216A8E16802F085F8AFF6AC3102A8B5
:1057800002F080F80221002000F04CFC02A801E1A8
:1057900053455420504420492F502076616C756544
:1057A00000000000103E01205044463A20202535DC
:1057B0002E316620572F41200000000044020020B7
:1057C00000007A4450443A2025352E316620754138
:1057D00020000000362052414D505550204F555466
:1057E0005055542000000000454E41424C45205287
:1057F000414D50555020202000000000494D4D459E
:10580000444941544520090920200000312F3130FE
:1058100074682053544550204F4E20200000000053
:105820003720434F4E54524F4C20534F555243450F
:105830000000000053454C45435420434F4E545202
:105840004F4C202000000000574845454C2B534F3B
:10585000465457415245202000000000534F465403
:1058600057415245204F4E4C592020200000000047
:1058700045585445524E414C204F4E4C5920202003
:1058800000000000382052454144494E47204D2E2B
:10589000552E2020000000005072657373204D4586
:1058A0004E5520616E6420200000000053455420B6
:1058B00052454144494E47204D2E552E00000000D0
:1058C00053484F572043555252454E5420202020D4
:1058D0000000000053484F5720504F57455220209A
:1058E000202020200000000039204252494748541F
:1058F0004E455353202020200000000053455420E3
:105900004252494748544E4553532020000000005E
:105910004272696768746E657373203D2025332E6B
:1059200030640000746F206368616E67652020201A
:105930002020202000000000313020494E464F52E8
:105940004D4154494F4E2020000000004761696ED0
:105950002052616E67653A202025642020000000F7
:105960004D617820493A20202564206D4120200097
:105970005044463A202025352E316620572F4100CD
:1059800053775265763A2030323030313020202043
:105990000000000000F0ABFF0421002000F042FBFB
:1059A00002A800F0A4FF51A102A801F06BFF06219C
:1059B000002000F037FB02A800F099FF50A20CA8CD
:1059C000E16801F05FFF28E0AFF6FC5102A801F0AA
:1059D00059FF0221002000F025FB02A800F087FFFC
:1059E0000421002000F01EFB02A800F080FF062129
:1059F000002000F017FB02A800F079FF45A216A8CE
:105A0000E16801F03FFF2A4647A102A801F03AFFF2
:105A100002AA0CA8E16801F035FF0021084600F059
:105A200001FB16A800F063FF0821002000F0FAFA3D
:105A30000CA800F05CFF256221B00020F0BD0FB47F
:105A4000F0B5BDB0044644AA6846439901F008FF8A
:105A50006A4636A1104601F015FF28AB1EAA34A1F4
:105A6000684602F0D3F8364D1EAA14A8E96801F082
:105A700009FF28AA32A8E96801F004FF002600F017
:105A800043FF4FF4784000F019F900222D4B1146E6
:105A9000104600F059FC4FF6FF7000F00FF9062198
:105AA000002000F0BFFA14A800F021FF14A800F0B5
:105AB0001EFF0821002000F0B5FA32A800F017FF01
:105AC000214D40F6FF702860FBF762F90746FBF7AF
:105AD0005FF93946FBF760F9A042F8D32E6000F079
